:1000000010C01FC076C21DC01CC0F4C11AC019C0E8
:1000100018C017C016C015C014C013C0F5C1302ECB
:10002000303211241FBECFE5D2E0DEBFCDBF20E0CD
:10003000A0E6B0E001C01D92A53BB207E1F77BD27C
:1000400086C9DECFFB0120813181A9014827CA0181
:1000500028E0AC014170552796958795452B21F0F6
:1000600051E0852750EA9527215099F7FB019183AC
:1000700080830895982F96959575880F8A7A982B86
:10008000892F869586958373990F990F9C7C892B70
:1000900082950895CF92DF92EF92FF920F931F9374
:1000A000CF93DF939C01FF24F39482E0D82E94E554
:1000B000C92EEE24EA94062F020FE90189911091CE
:1000C000AA001F5F1F719091A9001917E1F3D2DFF9
:1000D000E12FF0E0E757FF4F80831093AA00809153
:1000E000AC0080FD16C08091AC0082FDFCCFF8947E
:1000F00012BEFCBCF3BED8BE89B7826089BFCDB842
:10010000EFB8EEB8B99A8091AC0081608093AC00F2
:1001100078949E010C13D1CFDF91CF911F910F9155
:10012000FF90EF90DF90CF900895BF92CF92DF9233
:10013000EF92FF920F931F93CF93DF9300D0CDB731
:10014000DEB78C01D62E8EEFC82EC60E8FEF9FEF36
:100150009A838983B02E7801BE016F5F7F4FF701CC
:1001600081917F016FDF8E2D8B198C15A8F339815A
:100170002A81C8018D0D911DFC01329730830197B2
:10018000FC0120836D2DC80185DF0F900F90DF915A
:10019000CF911F910F91FF90EF90DF90CF90BF9084
:1001A0000895FC01218120582183628365E0BDCF41
:1001B0009FB7F894BC9AC49820E12A95F1F7BC98AF
:1001C000C49888E18A95F1F786B322E92A95F1F778
:1001D00000C09FBF80710895CF93DF93D8E0C0E047
:1001E000C695E6DF8111C068D150D1F78C2FDF9121
:1001F000CF9108959FB7F894BC9AC498EFEBF3E0C1
:100200003197F1F700C00000BC98C498FAEBFA955A
:10021000F1F700C086B3E3E3F3E03197F1F700C0F4
:1002200000009FBF8095807108958FB7F894BC9AA5
:10023000C49890EA9A95F1F7BC98C4989AE19A9577
:10024000F1F700C08FBF08958FB7F894BC9AC49897
:1002500090E19A95F1F7BC98C4989AEA9A95F1F7CB
:1002600000C08FBF0895CF93DF93D82FC8E0D0FF91
:1002700007C0EADFD695C150D1F7DF91CF9108953D
:10028000D4DFF8CF0F931F93CF93DF93EC0185E575
:10029000EADF8E01085F1F4F8991E5DFC017D107A4
:1002A000D9F7DF91CF911F910F9108958F929F926F
:1002B000AF92BF92CF92DF92EF92FF92CF9386B12F
:1002C000877D86B9379A8FE887B98FE99FE00197D4
:1002D000F1F700C00000C4E0C12CD12C7601369AA1
:1002E0003699FECF64B175B190E080E015D79B01DF
:1002F000AC01C701B60112D66B017C01C15079F780
:1003000020E030E040E85EE3B7D74B015C0137986E
:10031000379A8CE187B98FE99FE00197F1F700C028
:100320000000C4E0C12CD12C7601369A3699FECF5C
:1003300064B175B190E080E0EFD69B01AC01C701DC
:10034000B601ECD56B017C01C15079F720E030E0BB
:1003500040E85EE391D79B01AC016DEC7CEC8CE84E
:1003600094E444D66B017C01379820E030E040E211
:1003700051E482D7A3D6CDE06E3128F4613108F480
:1003800061E1CFEEC60FC092B100D092B200E09210
:10039000B300F092B40023E333E748E853E4C50127
:1003A000B401BBD52AE939E949E85FE31FD66B01FF
:1003B0007C016C2F70E090E080E0ACD620E030E073
:1003C00040E551E413D69B01AC01C701B601A6D5A7
:1003D0006093AD007093AE008093AF009093B00037
:1003E000CF91FF90EF90DF90CF90BF90AF909F9014
:1003F0008F9008958F938FB78F9382B78E5C82BF53
:100400008F918FBF8F9118951F921FB61F92112445
:100410008F939F93EF93FF938091AC0080FF4FC029
:10042000C39A8091AC0081FF16C08091AC008D7F93
:100430008093AC008BEF8EB98091AB00880F880F52
:10044000880F87608FB9FF91EF919F918F911F90D7
:100450001FBE1F9018959091AA008091A90098172F
:10046000C9F08091AC0082608093AC00E091A9005B
:10047000EF5FEF71E093A900F0E0E757FF4F808155
:100480008093AB008BEF8EB98091AB0086958695FB
:100490008068D8CFC3988091AC008E7F8093AC00E9
:1004A00013BE88B3836088BB87B38C7F87BB1DB8BE
:1004B00080E28ABF8BB780628BBFA89AC4CFC398F3
:1004C0008091AC008B7F8093AC00E0918800EF5F5F
:1004D000EF71809187008E1304C08091AC0088601A
:1004E000DDCFE09388008FB1F0E0E959FF4F8083C2
:1004F000D7CF8F938FB78F93B09919C081E182BF07
:1005000082B7885682BF81E08CBD83BF82E088BFFE
:1005100089B7826089BF84E58DB987EF8EB98BB7C3
:100520008F7D8BBF8091AC0084608093AC008F91F5
:100530008FBF8F911895CDB7DEB7CA54D1400FB693
:10054000F894DEBF0FBECDBFF89480E090E0CFD42A
:10055000382EACDEBA98BC98C4988FEB93E0019724
:10056000F1F700C0000084E080936600BC98C49A54
:1005700010928700109288001092A9001092AA0091
:10058000BB9AC39888B3836088BB87B38C7F87BBD3
:100590001DB880E28ABF8BB780628BBFA89A78941F
:1005A0008E010F5D1E4F88248394912CD8011B96D9
:1005B000C75BDE4FB983A883C954D140FE01329690
:1005C000CE5BDE4FF983E883C254D140A895909169
:1005D0008800809187009817C9F38FE097E2019710
:1005E000F1F700C000009091880080918700981773
:1005F00069F35E0196ECA91A9EEFB90AC501079648
:10060000F501650121812193E817F907D9F7909148
:100610008800809187009817D1F3E0918700EF5F01
:10062000EF71E0938700F0E0E959FF4F808122DD10
:10063000D50117968C9317979C919311D4CF11964F
:100640009C912DEF290F223010F0963061F6F501C4
:100650006680782EEFEFFFEFD801ED93FC937501E4
:10066000F6E0EF0EF11CB801D5018D915D01EADCD9
:10067000EA14FB04C1F7F8018081918168167906BC
:1006800009F0B1CFD6011296ED90FC901397FE249D
:10069000EF24FE241596BC90159714969C91149700
:1006A000308211968C91843009F48AC0863009F426
:1006B00025C3833009F097CF8183E114F10449F415
:1006C000B1E0BB1290CF82E082831382148267E094
:1006D0004EC0E1E0EE16F10451F1F2E0EF16F10444
:1006E00009F448C0B3E0EB16F10409F452C0F4E099
:1006F000EF16F10409F077CFD60115968C91823070
:1007000009F071CF84E0F8018283D0DD6091AD0003
:100710007091AE008091AF009091B000E1D3D8010C
:1007200013966D937D938D939C9316971FC022E033
:10073000B21259CF84E0D80112968C931297EEE151
:10074000F0E0E4911396EC931397EFE1F0E0E4917D
:100750001496EC931497E0E2F0E0E4911596EC9394
:100760001597E1E2F0E0E4911696EC9369E0C80198
:10077000DCDC39CFE1E0BE1236CF82E0D801129640
:100780008C9380E090E0B3D3382EF80113828483F9
:100790009ECF22E0B21227CF84E0D80112968C932C
:1007A00085DD6091B1007091B2008091B3009091AD
:1007B000B40096D3F8016383748385839683D6CF80
:1007C0008183E114F10409F00DC1F1E0BF120BCFF8
:1007D00082E0D80112968C93129713961C9213976D
:1007E00080E214968C9367E0C8019FDCC7019252A7
:1007F000029708F0F8CED60115968C91823009F058
:10080000F2CE84E0F801828388B39091660094016F
:1008100001C0220F9A95EAF7822B88BBFFE72AE1F5
:1008200036E0F15020403040E1F700C00000109267
:1008300064001092630010926200109261001092A6
:10084000600027B380916600A40102C0440F551FC9
:100850008A95E2F7CA01922F982B97BB98B380959F
:10086000892388BB8FE39CE90197F1F700C0000062
:10087000F89488B390916600940101C0220F9A9574
:10088000EAF7822B88BB9AE69A95F1F700C027B366
:1008900080916600D40102C0AA0FBB1F8A95E2F7BF
:1008A000CD018095822387BBBAE1BA95F1F700C0EC
:1008B000A0E090E081E050E040E066B32091660067
:1008C000F40102C0EE0FFF1F2A95E2F79F0170E0CE
:1008D0002623372335952795F8E0FA95F1F7281365
:1008E00009C04F5F5F4F22E02A95F1F700C04F3FEC
:1008F000510519F766B380916600940102C0220F7A
:10090000331F8A95E2F770E0262337233595279524
:10091000822F4F3F510509F0D1C17894D0906200E9
:100920006D2D6F7770E090E080E0F6D320E030E04E
:1009300040E853E4A1D42B013C016091630070E0D6
:1009400090E080E0E9D39B01AC01C301B201E6D2A3
:1009500020E030E040E251E449D32B013C01D7FED6
:1009600004C077FA709477F870946091600070E03A
:1009700090E080E0CFD320E030E040E853E47CD446
:100980005B016C016091610070E090E080E0C4D395
:100990009B01AC01C601B501C1D220E030E040E2CC
:1009A00051E424D3B62EC72ED82EA92E20E030E055
:1009B000A90118D3882309F49AC1E11432E2F3069D
:1009C00021F04B2C5C2C6D2C7A2CD80113967C9248
:1009D000139714966C92149715965C921597169629
:1009E0004C92C4CEB1E0EB16F10409F02BC1E1E06A
:1009F000BE12F9CD82E0D80112968C93129713960D
:100A00001C92F894FE0131965F01108211821282CD
:100A100013821482158216821782108639960E1759
:100A20001F0799F7E7DB811110C0789480E0D501AA
:100A30009C91903109F48F5FB9E0AB0EB11C0A159F
:100A40001B05A9F7F8018483CECECE5BDE4FE8818B
:100A5000C254D140CD5BDE4FF881C354D140C95B55
:100A6000DE4F1882C754D140CB5BDE4FE883C554BC
:100A7000D140CA5BDE4FF883C654D140212C88E0B8
:100A8000CB5BDE4FA881C554D140CA5BDE4FB88135
:100A9000C654D14001900D928A95E1F7ABDB80EF0F
:100AA000E2DB4424439455245394CB5BDE4F6880AF
:100AB000C554D140CA5BDE4F7880C654D140CC5B70
:100AC000DE4F1882C454D14073DBC85BDE4F88838D
:100AD000C854D1406DDBC85BDE4F4881C854D1405B
:100AE000442309F446C1811184C0D3018C91852926
:100AF0008C93D3018C91852109F479C0A5DB4394B3
:100B0000550C29F4BFEF6B1A7B0A55245394E1E48A
:100B10004E12DACF822D90E069E070E0D0D18A0DDC
:100B20009B1DE0E1DC01EC932394822D90E069E0D1
:100B300070E0C5D18A0D9B1D0196CC5BDE4FF8811C
:100B4000C454D140C95BDE4FF883C754D140CB5B5E
:100B5000DE4FE881C554D140CA5BDE4FF881C654F0
:100B6000D140CC5BDE4F2881C454D140211113C049
:100B70009E01275F3F4F90E0291242C07894CC5BE2
:100B8000DE4F9881C454D140992309F44FCF61E1DD
:100B9000C80107DB2BCECB5BDE4F8883C554D14029
:100BA000CA5BDE4F9883C654D14069CFC95BDE4F24
:100BB000F881C754D140F41104C09529D3019C9306
:100BC00098CFC95BDE4FB881C754D140B41558F4F3
:100BD000852D80959823F3019083CC5BDE4F48826E
:100BE000C454D14086CF952109F083CFF6CF1DDBC9
:100BF00086CFFFEFCC5BDE4FF883C454D1408ACF61
:100C0000F901379780E0519148E0652F6827869574
:100C100060FF02C06CE8862756954150B1F72E1749
:100C20003F0789F7275F3F4FF90139974081481304
:100C300002C09F5FA1CF8FEFCC5BDE4F8883C4548F
:100C4000D1409CCF97013A952132310508F09CC0E4
:100C5000F4E0BF12C8CC88E0D80112968C93FF2430
:100C6000C70169E070E02BD1E1E0F0E0EC0FFD1F7F
:100C70008E0F9F1FDC018C918031E9F4C70169E080
:100C800070E01DD10196E1E0F0E0EC0FFD1FE80FF0
:100C9000F91FD801139681918D93C75BDE4F288190
:100CA0003981C954D1402A173B07A9F76DE05FCDC0
:100CB0006DEF7FEFF5C062E0C80144C0943080F072
:100CC00090FD0EC0EA2FE695E695E695F0E0E05A35
:100CD000FF4F2081220F4730510538F42083AF5F4A
:100CE0009F5F9B3409F0E7CD18CE2160F7CF412CF0
:100CF000512C8FE7682E83EC782E67CE8183E11428
:100D0000F10411F591111CC0F1E0BF1219C068E0A7
:100D1000C601C0D92FE738E341E0215030404040C0
:100D2000E1F700C00000F894E2E4EF93EFE4EF9302
:100D3000EFE4EF93E4E5EF93E0E0FEE0099453CCB9
:100D400063E0C6012EDA4FCCEA94EF2809F04BCCD1
:100D500091110DC08FEF8B0D8E3F48F46B2D80E00D
:100D600090E0CDD068E0C60195D93B2C3CCC63E047
:100D7000A3CFD3019C91882309F418CF852D8095AA
:100D80009823F3019083B5CE97013250213231057B
:100D900008F02CCD32E0B31226CCD80112968C93F9
:100DA000FF24C70169E070E08AD0E1E0F0E0EC0FD9
:100DB000FD1F8E0F9F1FDC018C91803109F07BCFCE
:100DC000F894C70169E070E07AD001967F01E80EDF
:100DD000F91E10DA882309F46BCFC70153DA84E4D3
:100DE00042DAE6D98823E9F305DA882309F460CFEB
:100DF000C70148DA8EEB37DAEFD9F82ECF5CDE4F39
:100E00008883C153D140E8D9E82ECE5CDE4F888379
:100E1000C253D140E1D9CD5CDE4F8883C353D1406A
:100E2000DBD9CC5CDE4F8883C453D140D5D9CB5CB1
:100E3000DE4F8883C553D140CFD9CA5CDE4F88834B
:100E4000C653D140C9D9C95CDE4F8883C753D1404E
:100E5000C3D9C85CDE4F8883C853D140BDD9C75CB5
:100E6000DE4F8883C953D140FE01EF5CFE4FAF01D6
:100E7000485F5F4F90E0319128E0632F6927969596
:100E800060FF02C0BCE89B2736952150B1F74E1792
:100E90005F0789F77E2D6F2D891711F06EEF7FEFB9
:100EA000789490E080E036D120E030E040E85DE3E7
:100EB000E3D1F801938384837583668357CC002440
:100EC000552704C0080E591F880F991F009729F055
:100ED00076956795B8F37105B9F7802D952F08952C
:100EE0006927962769277827872778270895E19922
:100EF000FECF9FBB8EBBE09A99278DB30895262F16
:100F0000E199FECF1CBA9FBB8EBB2DBB0FB6F894E8
:100F1000E29AE19A0FBE019608955058BB27AA277E
:100F20000ED070C161D130F066D120F031F49F3F16
:100F300011F41EF456C10EF4E095E7FB4CC1E92F05
:100F400072D180F3BA17620773078407950718F008
:100F500071F49EF58AC10EF4E0950B2EBA2FA02DE8
:100F60000B01B90190010C01CA01A0011124FF2756
:100F7000591B99F0593F50F4503E68F11A16F04051
:100F8000A22F232F342F4427585FF3CF4695379550
:100F90002795A795F0405395C9F77EF41F16BA0B15
:100FA000620B730B840BBAF09150A1F0FF0FBB1FC3
:100FB000661F771F881FC2F70EC0BA0F621F731F0C
:100FC000841F48F4879577956795B795F7959E3F69
:100FD00008F0B3CF9395880F08F09927EE0F9795F7
:100FE00087950895D4D008F481E008950CD00AC103
:100FF00002D140F0F9D030F021F45F3F19F0EBC09E
:10100000511134C1EEC00FD198F39923C9F3552380
:10101000B1F3951B550BBB27AA27621773078407EB
:1010200038F09F5F5F4F220F331F441FAA1FA9F3A1
:1010300033D00E2E3AF0E0E830D091505040E69593
:10104000001CCAF729D0FE2F27D0660F771F881FF4
:10105000BB1F261737074807AB07B0E809F0BB0BE3
:10106000802DBF01FF2793585F4F2AF09E3F510507
:1010700068F0B1C0FBC05F3FECF3983EDCF38695AF
:1010800077956795B795F7959F5FC9F7880F911D7D
:101090009695879597F90895E1E0660F771F881F69
:1010A000BB1F621773078407BA0720F0621B730B1C
:1010B000840BBA0BEE1F88F7E0950895BCD088F03A
:1010C0009F5790F0B92F9927B751A0F0D1F0660F34
:1010D000771F881F991F1AF0BA95C9F712C0B1304F
:1010E00081F0C3D0B1E00895C0C0672F782F882762
:1010F000B85F39F0B93FCCF3869577956795B3958E
:10110000D9F73EF490958095709561957F4F8F4FFC
:101110009F4F0895E89409C097FB3EF49095809501
:10112000709561957F4F8F4F9F4F9923A9F0F92FAD
:1011300096E9BB279395F695879577956795B7952B
:10114000F111F8CFFAF4BB0F11F460FF1BC06F5F11
:101150007F4F8F4F9F4F16C0882311F096E911C023
:10116000772321F09EE8872F762F05C0662371F044
:1011700096E8862F70E060E02AF09A95660F771F58
:10118000881FDAF7880F9695879597F90895990F34
:101190000008550FAA0BE0E8FEEF16161706E80741
:1011A000F907C0F012161306E407F50798F0621B62
:1011B000730B840B950B39F40A2661F0232B242B37
:1011C000252B21F408950A2609F4A140A6958FEF56
:1011D000811D811D089597F99F6780E870E060E0A8
:1011E00008959FEF80EC089500240A9416161706C0
:1011F00018060906089500240A9412161306140608
:1012000005060895092E0394000C11F4882352F06A
:10121000BB0F40F4BF2B11F460FF04C06F5F7F4F22
:101220008F4F9F4F089557FD9058440F551F59F009
:101230005F3F71F04795880F97FB991F61F09F3FC3
:1012400079F087950895121613061406551FF2CFEC
:101250004695F1DF08C0161617061806991FF1CF3C
:1012600086957105610508940895E894BB27662763
:101270007727CB0197F908950AD0C4CFB5DF28F0BE
:10128000BADF18F0952309F0A6CFABCFEFCFCBDFB5
:10129000A8F39923D9F35523C9F3950F50E0551FAF
:1012A000AA27EE27FF27BB2700240894679520F480
:1012B000E20FF31FB41F0A1E220F331F441FAA1F81
:1012C0006695A9F7779530F4F30FB41F0A1E121E26
:1012D00008F46395330F441FAA1F221F769599F7D0
:1012E000879520F4B40F0A1E121E631F440FAA1F15
:1012F000221F331F8695A9F7862F712D602D11248B
:101300009F5750408AF0E1F088234AF0EE0FFF1F0C
:10131000BB1F661F771F881F91505040A9F79E3F43
:10132000510570F058CFA2CF5F3FECF3983EDCF34D
:10133000869577956795B795F795E7959F5FC1F780
:10134000FE2B880F911D9695879597F90895F8942F
:02135000FFCFCD
:00000001FF
