:1000000010C01FC098C21DC01CC016C21AC019C0A3
:1000100018C017C016C015C014C013C017C2302EA8
:10002000303311241FBECFE5D2E0DEBFCDBF20E0CC
:10003000A0E6B0E001C01D92A53BB207E1F79DD25A
:10004000ADC9DECFFB0120813181A9014827CA015A
:1000500028E0AC014170552796958795452B21F0F6
:1000600051E0852750EA9527215099F7FB019183AC
:1000700080830895982F96959575880F8A7A982B86
:10008000892F869586958373990F990F9C7C892B70
:1000900082950895CF92DF92EF92FF920F931F9374
:1000A000CF93DF939C01FF24F39482E0D82E94E554
:1000B000C92EEE24EA94062F020FE90189911091CE
:1000C000AA001F5F1F719091A9001917E1F3D2DFF9
:1000D000E12FF0E0E757FF4F80831093AA00809153
:1000E000AC0080FD16C08091AC0082FDFCCFF8947E
:1000F00012BEFCBCF3BED8BE89B7826089BFCDB842
:10010000EFB8EEB8B99A8091AC0081608093AC00F2
:1001100078949E010C13D1CFDF91CF911F910F9155
:10012000FF90EF90DF90CF900895BF92CF92DF9233
:10013000EF92FF920F931F93CF93DF9300D0CDB731
:10014000DEB78C01D62E8EEFC82EC60E8FEF9FEF36
:100150009A838983B02E7801BE016F5F7F4FF701CC
:1001600081917F016FDF8E2D8B198C15A8F339815A
:100170002A81C8018D0D911DFC01329730830197B2
:10018000FC0120836D2DC80185DF0F900F90DF915A
:10019000CF911F910F91FF90EF90DF90CF90BF9084
:1001A0000895FC01218120582183628365E0BDCF41
:1001B0009FB7F894BC9AC49820E12A95F1F7BC98AF
:1001C000C49888E18A95F1F786B322E92A95F1F778
:1001D00000C09FBF80710895CF93DF93D8E0C0E047
:1001E000C695E6DF8111C068D150D1F78C2FDF9121
:1001F000CF9108959FB7F894BC9AC498EFEBF3E0C1
:100200003197F1F700C00000BC98C498FAEBFA955A
:10021000F1F700C086B3E3E3F3E03197F1F700C0F4
:1002200000009FBF8095807108958FB7F894BC9AA5
:10023000C49890EA9A95F1F7BC98C4989AE19A9577
:10024000F1F700C08FBF08958FB7F894BC9AC49897
:1002500090E19A95F1F7BC98C4989AEA9A95F1F7CB
:1002600000C08FBF0895CF93DF93D82FC8E0D0FF91
:1002700007C0EADFD695C150D1F7DF91CF9108953D
:10028000D4DFF8CF0F931F93CF93DF93EC0185E575
:10029000EADF8E01085F1F4F8991E5DFC017D107A4
:1002A000D9F7DF91CF911F910F9108958F929F926F
:1002B000AF92BF92CF92DF92EF92FF92CF9386B12F
:1002C000877D86B9379A8FE887B98FE99FE00197D4
:1002D000F1F700C00000C4E0C12CD12C7601369AA1
:1002E0003699FECF64B175B190E080E03CD79B01B8
:1002F000AC01C701B60139D66B017C01C15079F759
:1003000020E030E040E85EE3DED74B015C01379847
:10031000379A8CE187B98FE99FE00197F1F700C028
:100320000000C4E0C12CD12C7601369A3699FECF5C
:1003300064B175B190E080E016D79B01AC01C701B4
:10034000B60113D66B017C01C15079F720E030E093
:1003500040E85EE3B8D79B01AC016DEC7CEC8CE827
:1003600094E46BD66B017C01379820E030E040E2EA
:1003700051E4A9D7CAD6CDE06E3128F4613108F432
:1003800061E1CFEEC60FC092B100D092B200E09210
:10039000B300F092B40023E333E748E853E4C50127
:1003A000B401E2D52AE939E949E85FE346D66B01B1
:1003B0007C016C2F70E090E080E0D3D620E030E04C
:1003C00040E551E43AD69B01AC01C701B601CDD559
:1003D0006093AD007093AE008093AF009093B00037
:1003E000CF91FF90EF90DF90CF90BF90AF909F9014
:1003F0008F90089521E030E0A90102C0440F551FFD
:100400006A95E2F7BA0140E08111462F80E050E0A2
:1004100026B330E0262337232417350709F0089543
:1004200092E09A95F1F700C091E0980F8F3F11F09C
:10043000892FEECF80E008958F938FB78F9382B787
:100440008E5C82BF8F918FBF8F9118951F921FB6C0
:100450001F9211248F939F93EF93FF938091AC0091
:1004600080FF4FC0C39A8091AC0081FF16C080917D
:10047000AC008D7F8093AC008BEF8EB98091AB0088
:10048000880F880F880F87608FB9FF91EF919F9138
:100490008F911F901FBE1F9018959091AA00809178
:1004A000A9009817C9F08091AC0082608093AC00DD
:1004B000E091A900EF5FEF71E093A900F0E0E7574A
:1004C000FF4F80818093AB008BEF8EB98091AB00A2
:1004D000869586958068D8CFC3988091AC008E7F32
:1004E0008093AC0013BE88B3836088BB87B38C7FD6
:1004F00087BB1DB880E28ABF8BB780628BBFA89A8A
:10050000C4CFC3988091AC008B7F8093AC00E09106
:100510008800EF5FEF71809187008E1304C0809197
:10052000AC008860DDCFE09388008FB1F0E0E9593E
:10053000FF4F8083D7CF8F938FB78F93B09919C018
:1005400081E182BF82B7885682BF81E08CBD83BFC4
:1005500082E088BF89B7826089BF84E58DB987EF63
:100560008EB98BB78F7D8BBF8091AC0084608093F8
:10057000AC008F918FBF8F911895CDB7DEB7C15961
:10058000D1400FB6F894DEBF0FBECDBFF89480E027
:1005900090E0D4D4382E8ADEBA98BC98C4988FEBF9
:1005A00093E00197F1F700C0000084E080936600BB
:1005B000BC98C49A10928700109288001092A900EB
:1005C0001092AA00BB9AC39888B3836088BB87B394
:1005D0008C7F87BB1DB880E28ABF8BB780628BBFE0
:1005E000A89A78946E019FEDC91A9EEFD90A8E01E0
:1005F0000F581E4FD8011B96C057DE4FB983A883F2
:10060000C059D140FE013296C757DE4FF983E883C7
:10061000C958D140A895909188008091870098177B
:10062000C9F38FE097E20197F1F700C000009091C5
:10063000880080918700981769F34E019FE7891A17
:100640009EEF990AC4010796F40154012181219378
:10065000E817F907D9F790918800809187009817DB
:10066000D1F3E0918700EF5FEF71E0938700F0E056
:10067000E959FF4F8081FEDCD40117968C931797C0
:100680009C919311D4CF11969C912DEF290F22307C
:1006900010F0963061F6F4016680782EEFEFFFEFF0
:1006A000D601ED93FC937401F6E0EF0EF11CB60158
:1006B000D4018D914D01C6DCE814F904C1F7F601AF
:1006C000808191816816790609F0B1CFD501129623
:1006D000ED90FC901397FE24EF24FE2415969C9039
:1006E000159714969C911497F801308211968C916D
:1006F000843009F490C0863009F438C3833009F09F
:1007000096CF8183E114F10479F4F1E09F128FCF49
:1007100082E0D80112968C93129713961C9213972D
:1007200014961C9267E04EC0B1E0EB16F10451F153
:10073000E2E0EE16F10409F448C0B3E0EB16F10470
:1007400009F452C0F4E0EF16F10409F070CFD501BE
:1007500015968C91823009F06ACF84E0F80182838B
:10076000A5DD6091AD007091AE008091AF009091D9
:10077000B000DDD3D80113966D937D938D939C9338
:1007800016971FC0F2E09F1252CF84E0D801129654
:100790008C931297EEE1F0E0E4911396EC931397AB
:1007A000EFE1F0E0E4911496EC931497E0E2F0E0CE
:1007B000E4911596EC931597E1E2F0E0E49116963A
:1007C000EC9369E0C801B1DC32CFE1E09E122FCF9B
:1007D00082E0D80112968C9380E090E0AFD3382E5F
:1007E000F801138284839ECF22E0921220CF84E00E
:1007F000D80112968C935ADD6091B1007091B200CD
:100800008091B3009091B40092D3F8016383748314
:1008100085839683D6CF8183E114F10409F01BC14F
:10082000F1E09F1204CF82E0D80112968C931297C8
:1008300013961C92139780E214968C9367E0C8017C
:1008400074DCC7019252039708F0F1CEF50185815F
:10085000E114B2E2FB0609F06AC2843009F0E7CE87
:1008600088E0D80112968C93109264001092630075
:1008700010926200109261001092600047B32091C4
:10088000660081E090E0FC0102C0EE0FFF1F2A9598
:10089000E2F79F01342F322B37BB38B32095232347
:1008A00028BBAFE0B7E21197F1F700C00000F89461
:1008B00028B330916600AC0101C0440F3A95EAF7C5
:1008C000242B28BBB0E5BA95F1F727B360916600F9
:1008D000062E01C0880F0A94EAF78095822387BB11
:1008E00080E088DD882309F47CC26091660081E0A5
:1008F00081DD882309F475C24601560160916600C6
:1009000080E078DDF50180836091660081E072DD32
:10091000D50111968C93B2E0AB0EB11C0A151B05E4
:1009200069F730E020E0F40140819181442309F42B
:1009300058C2992309F455C2F90183E0F595E7956A
:100940008A95E1F7E05AFF4F8081880F491708F434
:10095000F3C180832F5F3F4FF2E08F0E911C28324E
:10096000310509F7789450906000209061007090F4
:10097000620060906300852D820D870D860D909139
:10098000640089132EC2672D6F7770E090E080E0DD
:10099000EAD320E030E040E853E495D44B015C0119
:1009A000662D70E090E080E0DED39B01AC01C501D4
:1009B000B401DBD220E030E040E251E43ED34B0111
:1009C0005C0177FE04C0B7FAB094B7F8B094652D17
:1009D00070E090E080E0C5D320E030E040E853E4F0
:1009E00072D42B013C01622D70E090E080E0BBD31B
:1009F0009B01AC01C301B201B8D220E030E040E27B
:100A000051E41BD3762E672E582E492E20E030E07D
:100A1000A9010FD3882309F4E4C1E11482E2F806A6
:100A200009F08CC1D80113964C92139714965C92DE
:100A3000149715966C92159716967C9216971796A2
:100A4000BC9217971896AC92189719969C92199782
:100A50001A968C9264C1B1E0EB16F10409F02BC137
:100A6000E1E09E12E4CD82E0D80112968C931297B9
:100A700013961C92F894FE0131964F011082118258
:100A8000128213821482158216821782108639967A
:100A9000CE16DF0699F7AEDB811110C0789480E0A6
:100AA000D4019C91903109F48F5FB9E08B0E911CB9
:100AB000C814D904A9F7F8018483C0CEC757DE4F04
:100AC000E881C958D140C657DE4FF881CA58D14095
:100AD000C257DE4F1882CE58D140C457DE4FE8834C
:100AE000CC58D140C357DE4FF883CD58D140212C8C
:100AF00088E0C457DE4FA881CC58D140C357DE4FA1
:100B0000B881CD58D14001900D928A95E1F772DB02
:100B100080EFA9DB4424439455245394C457DE4FFB
:100B20006880CC58D140C357DE4F7880CD58D14033
:100B3000C557DE4F1882CB58D1403ADBC157DE4F44
:100B40008883CF58D14034DBC157DE4F6881CF58FE
:100B5000D140662309F447C1811184C0D3018C912F
:100B600085298C93D3018C91852109F479C06CDBA4
:100B70004394550C29F4BFEF6B1A7B0A5524539408
:100B8000E1E44E12DACF822D90E069E070E0BED150
:100B9000880D991DE0E1DC01EC932394822D90E017
:100BA00069E070E0B3D1880D991D0196C557DE4FFD
:100BB000F881CB58D140C257DE4FF883CE58D14090
:100BC000C457DE4FE881CC58D140C357DE4FF8817F
:100BD000CD58D140C557DE4F2881CB58D140211187
:100BE00013C09E01275F3F4F90E0291242C07894C6
:100BF000C557DE4F8881CB58D140882309F44FCFA9
:100C000061E1C801CEDA1DCEC457DE4F8883CC58CF
:100C1000D140C357DE4F9883CD58D14069CFC257DA
:100C2000DE4FF881CE58D140F41104C09529D3018C
:100C30009C9398CFC257DE4FB881CE58D140B4159F
:100C400058F4852D80959823F3019083C557DE4F86
:100C50004882CB58D14086CF952109F083CFF6CF7B
:100C6000E4DA86CFFFEFC557DE4FF883CB58D1408B
:100C70008ACFF901379780E0519148E0652F6827C6
:100C8000869560FF02C06CE8862756954150B1F703
:100C90002E173F0789F7275F3F4FF90139974081AA
:100CA000481302C09F5FA1CF7FEFC557DE4F788307
:100CB000CB58D1409CCF97013A952132310508F0AD
:100CC0009DC0F4E09F12B3CC88E0D80112968C93BB
:100CD000FF24C70169E070E019D1E1E0F0E0EC0F1A
:100CE000FD1F8E0F9F1FDC018C918031E9F4C7013D
:100CF00069E070E00BD10196E1E0F0E0EC0FFD1F40
:100D0000E80FF91FD801139681918D93C057DE4FDC
:100D100028813981C059D1402A173B07A9F76DE0D6
:100D200051CD6DEF7FEFDCC062E0C80143C082307F
:100D300009F07DCC84E095CD81600BCEB1E0EB165F
:100D4000B2E2FB0631F4F801B382A4829582868276
:100D500038CDD80113964C92139714965C92149741
:100D600015966C92159716967C922BCD8183E11483
:100D7000F10411F591111CC0F1E09F1219C068E057
:100D8000C50188D92FE738E361E021503040604049
:100D9000E1F700C00000F894E2E4EF93EFE4EF9392
:100DA000EFE4EF93E4E5EF93E0E0FEE009943FCC5D
:100DB00063E0C501F6D93BCCEA94EF2809F037CCC3
:100DC00091110DC08FEF890D8E3F48F4692D80E0A1
:100DD00090E0BCD068E0C5015DD9392C28CC63E037
:100DE000A4CF61E1A2CFD3019C91882309F417CF4E
:100DF000852D80959823F3019083B4CE97013250CE
:100E00002132310508F01DCD32E0931210CCD8010B
:100E100012968C93FF24C70169E070E077D0E1E07F
:100E2000F0E0EC0FFD1F8E0F9F1FDC018C918031D5
:100E300009F07ACFF894C70169E070E067D00196B5
:100E40007F01E80EF91ED6D9882309F46ACFC701BD
:100E500019DA84E408DAACD98823E9F3CBD98823FA
:100E600009F45FCFC7010EDA8EEBFDD9B5D9F82EA4
:100E7000F6018083B1D9E82ED60111968C93ACD9B6
:100E8000F6018283A9D9D60113968C93A5D9F601D0
:100E90008483A2D9D60115968C939ED9F6018683B8
:100EA0009BD9D60117968C9397D9F6018087A60116
:100EB000485F5F4F90E0319128E0632F6927969556
:100EC00060FF02C06CE8962736952150B1F74E17A7
:100ED0005F0789F77E2D6F2D891711F06EEF7FEF79
:100EE000789490E080E03DD120E030E040E85DE3A0
:100EF000EAD1D80113969C93139714968C93149768
:100F000015967C93159716966C935BCC0024552709
:100F100004C0080E591F880F991F009729F0769575
:100F20006795B8F37105B9F7802D952F0895692756
:100F3000962769277827872778270895E199FECF94
:100F40009FBB8EBBE09A99278DB30895262FE19918
:100F5000FECF1CBA9FBB8EBB2DBB0FB6F894E29A96
:100F6000E19A0FBE019608955058BB27AA270ED0CC
:100F700070C161D130F066D120F031F49F3F11F49F
:100F80001EF456C10EF4E095E7FB4CC1E92F72D177
:100F900080F3BA17620773078407950718F071F496
:100FA0009EF58AC10EF4E0950B2EBA2FA02D0B01F1
:100FB000B90190010C01CA01A0011124FF27591B9E
:100FC00099F0593F50F4503E68F11A16F040A22FA4
:100FD000232F342F4427585FF3CF46953795279515
:100FE000A795F0405395C9F77EF41F16BA0B620B14
:100FF000730B840BBAF09150A1F0FF0FBB1F661F5B
:10100000771F881FC2F70EC0BA0F621F731F841F9D
:1010100048F4879577956795B795F7959E3F08F0C3
:10102000B3CF9395880F08F09927EE0F9795879582
:101030000895D4D008F481E008950CD00AC102D1FB
:1010400040F0F9D030F021F45F3F19F0EBC05111BE
:1010500034C1EEC00FD198F39923C9F35523B1F3EE
:10106000951B550BBB27AA2762177307840738F017
:101070009F5F5F4F220F331F441FAA1FA9F333D076
:101080000E2E3AF0E0E830D091505040E695001C2A
:10109000CAF729D0FE2F27D0660F771F881FBB1FE6
:1010A000261737074807AB07B0E809F0BB0B802DC0
:1010B000BF01FF2793585F4F2AF09E3F510568F00C
:1010C000B1C0FBC05F3FECF3983EDCF386957795AB
:1010D0006795B795F7959F5FC9F7880F911D96950E
:1010E000879597F90895E1E0660F771F881FBB1F6A
:1010F000621773078407BA0720F0621B730B840B17
:10110000BA0BEE1F88F7E0950895BCD088F09F5782
:1011100090F0B92F9927B751A0F0D1F0660F771F43
:10112000881F991F1AF0BA95C9F712C0B13081F023
:10113000C3D0B1E00895C0C0672F782F8827B85F6B
:1011400039F0B93FCCF3869577956795B395D9F784
:101150003EF490958095709561957F4F8F4F9F4F8E
:101160000895E89409C097FB3EF49095809570959A
:1011700061957F4F8F4F9F4F9923A9F0F92F96E9E3
:10118000BB279395F695879577956795B795F11158
:10119000F8CFFAF4BB0F11F460FF1BC06F5F7F4FF5
:1011A0008F4F9F4F16C0882311F096E911C0772307
:1011B00021F09EE8872F762F05C0662371F096E810
:1011C000862F70E060E02AF09A95660F771F881FDF
:1011D000DAF7880F9695879597F90895990F000883
:1011E000550FAA0BE0E8FEEF16161706E807F907F9
:1011F000C0F012161306E407F50798F0621B730B94
:10120000840B950B39F40A2661F0232B242B252B14
:1012100021F408950A2609F4A140A6958FEF811DB7
:10122000811D089597F99F6780E870E060E0089558
:101230009FEF80EC089500240A94161617061806EE
:101240000906089500240A941216130614060506CA
:101250000895092E0394000C11F4882352F0BB0F5B
:1012600040F4BF2B11F460FF04C06F5F7F4F8F4FBE
:101270009F4F089557FD9058440F551F59F05F3FF9
:1012800071F04795880F97FB991F61F09F3F79F0A8
:1012900087950895121613061406551FF2CF46952A
:1012A000F1DF08C0161617061806991FF1CF8695AC
:1012B0007105610508940895E894BB276627772790
:1012C000CB0197F908950AD0C4CFB5DF28F0BADF73
:1012D00018F0952309F0A6CFABCFEFCFCBDFA8F363
:1012E0009923D9F35523C9F3950F50E0551FAA2729
:1012F000EE27FF27BB2700240894679520F4E20F10
:10130000F31FB41F0A1E220F331F441FAA1F669526
:10131000A9F7779530F4F30FB41F0A1E121E08F4D4
:101320006395330F441FAA1F221F769599F787955F
:1013300020F4B40F0A1E121E631F440FAA1F221F9F
:10134000331F8695A9F7862F712D602D11249F5785
:1013500050408AF0E1F088234AF0EE0FFF1FBB1FD8
:10136000661F771F881F91505040A9F79E3F510577
:1013700070F058CFA2CF5F3FECF3983EDCF3869538
:1013800077956795B795F795E7959F5FC1F7FE2B22
:10139000880F911D9695879597F90895F894FFCF3A
:00000001FF
